using System;
using System.Data;
using System.IO;
using System.IO.Compression;
using System.Linq;
using System.Text;
using System.Text.Json;
using System.Text.RegularExpressions;
using System.Threading.Tasks;
using Azure.Identity;
using Azure.Storage.Blobs;
using ClearBank.Bacs.Transforms.Files;
using Microsoft.AspNetCore.ResponseCompression;
using Microsoft.Data.SqlClient;
using Microsoft.Extensions.Configuration;
using Microsoft.Extensions.Logging;

namespace LiveDocs.Server.Replacers
{
    public class Std18InfoReplacer : IStd18InfoReplacer
    {
        private readonly IConfiguration _configuration;
        private readonly ILogger<Std18InfoReplacer> _logger;

        public Std18InfoReplacer(IConfiguration configuration, ILogger<Std18InfoReplacer> logger)
        {
            _configuration = configuration;
            _logger = logger;
        }

        public async Task<string> Render(string std18)
        {
            try
            {

                var std18String =
                    @"VOL1      0                              999999                                1^^^^^^^^^^^^^^^^^^^^^^^^^^^^^^^^^^^^^^^^
HDR1A999999S   999999      00010001       21005 210130000000                    ^^^^^^^^^^^^^^^^^^^^^^^^^^^^^^^^^^^^^^^^
HDR2F001200012000                                 00                            ^^^^^^^^^^^^^^^^^^^^^^^^^^^^^^^^^^^^^^^^
UHL1 2100504040001  000000001 DAILY  001                928     00/09/30        ^^^^^^^^^^^^^^^^^^^^^^^^^^^^^^^^^^^^^^^^
*TM*^^^^^^^^^^^^^^^^^^^^^^^^^^^^^^^^^^^^^^^^^^^^^^^^^^^^^^^^^^^^^^^^^^^^^^^^^^^^^^^^^^^^^^^^^^^^^^^^^^^^^^^^^^^^^^^^^^^^
6083704120284800120977413384764 00500000007150AXA INSURANCE     302350403-8396AA5HDAMIAN LEWANDOWSKI 43376001608780A    
0406051464971401720364780634727 00500000012093MPS LTD           188261000011843908DR SIDHARTHA NAGAL 4343130181B1DAA    
0406051390659409920776780914231    00000105600ADECCO UK LIMITED 77837   77839     PRESTIGE SIGNS     43451701F508CF     
0406051390659409920573080707716    00000052800OFFICE ANGELS LTD 77838             PRESTIGE SIGNS     43451701F508EF     
0406051430437401720028083029352 00500000046400FDMS     510702541510702541         WWW.ESCOOTERPLANET 436691015E6D9BA    
0406051428566201720028083029352 00500000002399FDMS     510703754510703754         HTTPS //FOREPLAYCR 4366910163D8FCA    
0406051380218109920028083029352    00000006796FDMS     510622863510622863         THE LOCAL CHIPPY   436691015E1272     
0406051370896309920028083029352    00000002275FDMS     510626385510626385         TUK TUK INDIAN TAK 436691015E1273     
0406051382690209920028083029352    00000003230FDMS     510628407510628407         WALTON FRIED CHICK 436691015E1274     
0406051396319909920028083029352    00000188225FDMS     510628522510628522         SEA FRONT          436691015E1275     
0406051396319909920028083029352    00000024200FDMS     510628530510628530         SEA FRONT          436691015E1276     
0406051395159509920028083029352    00000034747FDMS     510630361510630361         CURRY MERCHANTS    436691015E1277     
0406051361730109920028083029352    00000023000FDMS     510631112510631112         NOLE SOURDOUGH PIZ 436691015E1278     
0406051390879409920028083029352    00000002685FDMS     510631286510631286         DOLANS TAKE AWAY   436691015E1279     
0406051396888009920028083029352    00000001345FDMS     510632300510632300         ROSE INDIAN TAKEAW 436691015E127A     
0406051382625809920028083029352    00000055149FDMS     510633829510633829         FOWEY RIVER GALLER 436691015E127B     
0406051353377909920028083029352    00000008835FDMS     510634744510634744         SUNNY BEACH RESTAU 436691015E127C     
0406051379084909920028083029352    00000002498FDMS     510636582510636582         TRINITY LOUNGE     436691015E127D     
0406051397690609920028083029352    00000034870FDMS     510640808510640808         YIMCHAI            436691015E127E     
0406051370256509920028083029352    00000003190FDMS     510641236510641236         MY MASALA          436691015E127F     
0406051367346909920028083029352    00000030500FDMS     510642572510642572         FONE REVIVE        436691015E1280     
0406051395711809920028083029352    00000004580FDMS     510642747510642747         TREETON PIZZA EXPR 436691015E1281     
0406051398852909920028083029352    00000001675FDMS     510643539510643539         LOVE SHAWARMA      436691015E1282     
0406051407741909920028083029352    00000054014FDMS     510644594510644594         FARRINGTONS FAMILY 436691015E1283     
0406051394356109920028083029352    00000021750FDMS     510644719510644719         FLAMES EXPRESS     436691015E1284     
0406051386367709920028083029352    00000005330FDMS     510646680510646680         WWW.GRUBGRAB.CO.UK 436691015E1285     
0406051397199909920028083029352    00000059682FDMS     510646763510646763         BATH ROAD LOCAL    436691015E1286     
0406051373860609920028083029352    00000012030FDMS     510647654510647654         WELL HALL TANDOORI 436691015E1287     
0406051363185709920028083029352    00000146377FDMS     510648041510648041         M11 LOCAL          436691015E1288     
0406051408854409920028083029352    00000026965FDMS     510650229510650229         BARISTA            436691015E1289     
0406051430860409920028083029352    00000002600FDMS     510650575510650575         WOW 2              436691015E1301     
0406051415690109920028083029352    00000079865FDMS     510652639510652639         BRIDGE BAKERY      436691015E1302     
0406051412526909920028083029352    00000003540FDMS     510652878510652878         KULLAR FISH BAR    436691015E1303     
0406051401043209920028083029352    00000027455FDMS     510653918510653918         MAGAZIN ROMANESC T 436691015E1304     
0406051377527109920028083029352    00000002949FDMS     510654064510654064         IRO SUSHI          436691015E1305     
0406051348556709920028083029352    00000015525FDMS     510655038510655038         TUNNOCKS           436691015E1306     
0406051411267809920028083029352    00000006450FDMS     510655343510655343         BLUKKU             436691015E1307     
0406051410620909920028083029352    00000010658FDMS     510655798510655798         BEST GRILL SHAWARM 436691015E1308     
0406051414801409920028083029352    00000084930FDMS     510656705510656705         BELL STREET COFFEE 436691015E1309     
0406051406773109920028083029352    00000010359FDMS     510656853510656853         TAJ MAHAL NIGHT    436691015E130A     
0406051416793209920028083029352    00000034010FDMS     510657117510657117         TAJ BAZAAR         436691015E130B     
0406051415999509920028083029352    00000002120FDMS     510657190510657190         SHIMLA TANDOORI    436691015E130C     
0406051414848709920028083029352    00000025000FDMS     510657620510657620         CALDER MOTORHOME H 436691015E130D     
0406051393509509920028083029352    00000000699FDMS     510662208510662208         PIZZA BOX          436691015E130E     
0406051415832109920028083029352    00000012683FDMS     510662463510662463         FLAVAS PIZZA & PER 436691015E130F     
0406051406416309920028083029352    00000004898FDMS     510663057510663057         WEST KEBAB & BURGE 436691015E1310     
0406051423979209920028083029352    00000009030FDMS     510664238510664238         THE MIX            436691015E1311     
0406051421598409920028083029352    00000007350FDMS     510665508510665508         QUEENS FISH AND TI 436691015E1312     
0406051418506409920028083029352    00000014890FDMS     510666613510666613         ATILLA KEBAB HOUSE 436691015E1313     
0406051392172509920028083029352    00000007151FDMS     510667223510667223         THE BASEMENT CLUB  436691015E1314     
0406051421199309920028083029352    00000030320FDMS     510668817510668817         HYDERABADI ZAIQA   436691015E1315     
0406051415918209920028083029352    00000017185FDMS     510669526510669526         ROYAL FOUNTAIN     436691015E1316     
0406051403066909920028083029352    00000003740FDMS     510669799510669799         CHICK-INN          436691015E1317     
0406051435461609920028083029352    00000003405FDMS     510669856510669856         HEROLICIOUS        436691015E1318     
0406051392213909920028083029352    00000008264FDMS     510671456510671456         KATHMANDU FUSION   436691015E1319     
0406051381394909920028083029352    00000004585FDMS     510671795510671795         WING HUT           436691015E131A     
0406051394747009920028083029352    00000025218FDMS     510672876510672876         SHALIMAR TANDOORI  436691015E131B     
0406051418368909920028083029352    00000003802FDMS     510674518510674518         2020 PIZZA GRILL   436691015E131C     
0406051403956609920028083029352    00000002010FDMS     510674799510674799         DOLCE & GELATO     436691015E131D     
0406051411156409920028083029352    00000003360FDMS     510675028510675028         3BZ                436691015E131E     
0406051390818509920028083029352    00000002110FDMS     510675739510675739         HFCPIZZACOTTAGE.CO 436691015E131F     
0406051390818509920028083029352    00000006398FDMS     510675747510675747         HFC PIZZA COTTAGE  436691015E1320     
0406051361377109920028083029352    00000007260FDMS     510678311510678311         TURKISH DELIGHT    436691015E1321     
0406051426661609920028083029352    00000151300FDMS     510679640510679640         THE BEST BROASTED  436691015E1322     
0406051426623109920028083029352    00000000574FDMS     510680739510680739         YO DESI            436691015E1323     
0406051434775109920028083029352    00000006500FDMS     510681893510681893         CAKES BOUTIQUE     436691015E1324     
0406051412235009920028083029352    00000001450FDMS     510681927510681927         PRO SHOP           436691015E12A5     
0406051415266809920028083029352    00000006350FDMS     510683683510683683         DFC CHICKEN & PIZZ 436691015E12A6     
0406051426737609920028083029352    00000009386FDMS     510685837510685837         PIZZALICIOUS       436691015E12A7     
0406051421275209920028083029352    00000016060FDMS     510686249510686249         MEXIFUN            436691015E12A8     
0406051351745309920028083029352    00000048585FDMS     510686272510686272         ATLANTIS FISH & CH 436691015E12A9     
0406051412952809920028083029352    00000015310FDMS     510686819510686819         THE CHIC PEA       436691015E12AA     
0406051441264809920028083029352    00000016636FDMS     510687650510687650         SPICE THAI         436691015E12AB     
0406051384642009920028083029352    00000012053FDMS     510690118510690118         DC MODELS UK LTD   436691015E12AC     
0406051394689209920028083029352    00000041903FDMS     510690589510690589         HOOK ROAD FOOD & W 436691015E12AD     
0406051398956609920028083029352    00000003500FDMS     510690746510690746         ANISE INDIAN RESTA 436691015E12AE     
0406051444356109920028083029352    00000000650FDMS     510696503510696503         THE CHARCOAL HOB   436691015E12AF     
0406051440308909920028083029352    00000000900FDMS     510696677510696677         PAPA KALS          436691015E12B0     
0406051443790109920028083029352    00000066343FDMS     510697469510697469         BEST ONE           436691015E12B1     
0406051363554509920028083029352    00000001849FDMS     510697600510697600         NAPOLI PIZZA       436691015E12B2     
0406051439924209920028083029352    00000016230FDMS     510698020510698020         HTTPS //WWW.CODFAT 436691015E12B3     
0406051381768909920028083029352    00000000500FDMS     510698046510698046         FINEST PIZZA       436691015E12B4     
0406051448139609920028083029352    00000001850FDMS     510698814510698814         DIAL A SHAKE       436691015E12B5     
0406051374237909920028083029352    00000015350FDMS     510699788510699788         PIZZAHOLICS        436691015E12B6     
0406051414409209920028083029352    00000002445FDMS     510700966510700966         AJ INDIAN CUISINE  436691015E12B7     
0406051402911109920028083029352    00000074440FDMS     510702749510702749         PENDAS WAY OFF LIC 436691015E12B8     
0406051365548409920028083029352    00000007508FDMS     510704240510704240         JOLLOF FOOD STORE  436691015E12B9     
0406051449850209920028083029352    00000002499FDMS     510706633510706633         VIZZA GUYS         436691015E12BA     
0406051410554909920028083029352    00000052110FDMS     510707433510707433         FRESH FISH         436691015E12BB     
0406051351329309920028083029352    00000007500FDMS     510709082510709082         DONCASTER ENDODONT 436691015E12BC     
0406051409461709920028083029352    00000020461FDMS     510709702510709702         EATIGO FAST FOOD   436691015E12BD     
0406051451982509920028083029352    00000011620FDMS     510712177510712177         SOPHIES EXPRESS    436691015E12BE     
0406051443851909920028083029352    00000009360FDMS     510712383510712383         CALOROSO PIZZA WOO 436691015E12BF     
0406051417450109920028083029352    00000042928FDMS     510714298510714298         HANDI RESTAURANT   436691015E12C0     
0406051394082909920028083029352    00000012040FDMS     510716012510716012         SINGH IS KING      436691015E1341     
0406051453634209920028083029352    00000007250FDMS     510716855510716855         LITTLE ITALY       436691015E1342     
0406051441827309920028083029352    00000007410FDMS     510718448510718448         ADORA PIZZA        436691015E1343     
0406051431400309920028083029352    00000046850FDMS     510720790510720790         PERI PERI ORIGINAL 436691015E1344     
0406051457014309920028083029352    00000007000FDMS     510721632510721632         FONEREVIVE         436691015E1345     
0406051454070109920028083029352    00000016289FDMS     510722267510722267         V S P WINES        436691015E1346     
0406051380729109920028083029352    00000004015FDMS     510722895510722895         KJ S DINER         436691015E1347     
0406051454789909920028083029352    00000000370FDMS     510724735510724735         TASTY BUDZ LTD     436691015E1348     
0406051348454709920028083029352    00000033265FDMS     510726565510726565         TIKKAS             436691015E1349     
0406051455983209920028083029352    00000001050FDMS     510726680510726680         TOWNMARKET         436691015E134A     
0406051441307609920028083029352    00000006740FDMS     510730534510730534         FRATELLI  PIZZERIA 436691015E134E     
0406051454951109920028083029352    00000079000FDMS     510727852510727852         CHINA CENTRE       436691015E134B     
0406051454552909920028083029352    00000000900FDMS     510728603510728603         THE TYNE BITE      436691015E134C     
0406051428924209920028083029352    00000147432FDMS     510729932510729932         MEDITERRANEVM.TOUC 436691015E134D     
0406051439287909920028083029352    00000034920FDMS     510730625510730625         GREEKSTREETFOOD.TO 436691015E134F     
0406051457623309920028083029352    00000005445FDMS     510731136510731136         MARCHEE JOTALIMA   436691015E1350     
0406051449843409920028083029352    00000001600FDMS     510732159510732159         PAPA GINOS         436691015E1351     
0406051381052209920028083029352    00000010620FDMS     510732803510732803         MANJAROS           436691015E1352     
0406051440945409920028083029352    00000006970FDMS     510733074510733074         WWW.NEWMAYFLOWERBU 436691015E1353     
0406051389605209920028083029352    00000058610FDMS     510733082510733082         CHA CHA CHAI       436691015E1354     
0406051462665409920028083029352    00000001330FDMS     510735608510735608         THE PIZZA SHOP     436691015E1355     
0406051457389709920028083029352    00000001453FDMS     510735798510735798         BIEDRONKA          436691015E1356     
0406051361730109920028083029352    00000045100FDMS     510735855510735855         NOLE PIZZA         436691015E1357     
0406051454407709920028083029352    00000016645FDMS     510736937510736937         WARDS CASH AND CAR 436691015E1358     
0406051448321909920028083029352    00000006905FDMS     510737273510737273         ASIF FOOD LIMITED  436691015E1359     
0406051435805509920028083029352    00000050855FDMS     510738438510738438         BELLA BELLA ITALIA 436691015E135A     
0406051439249409920028083029352    00000007810FDMS     510740426510740426         SMOKY BOYS         436691015E135B     
0405050000001309920028083029352    00000010000FDMS     510740947510740947         TALKREMIT  -  TRGE 436691015E137F     
0406051462044409920028083029352    00000002787FDMS     510741077510741077         DOWNTOWN HARWICH   436691015E135C     
0406051438112209920028083029352    00000003230FDMS     510741317510741317         CINNAMON INDIAN TA 436691015E135D     
0406051461907909920028083029352    00000002650FDMS     510741960510741960         BERLIN DONER       436691015E135E     
0406051461133409920028083029352    00000012953FDMS     510743685510743685         CENTRAL SUPERMEARK 436691015E135F     
0406051451332609920028083029352    00000016065FDMS     510744824510744824         500 DEGREES        436691015E1360     
0406051408699309920028083029352    00000050726FDMS     510746662510746662         WHITE LION         436691015E1361     
0406051438563709920028083029352    00000000899FDMS     510749468510749468         LUKSHAZ PERI PERI  436691015E1362     
0406051467333809920028083029352    00000002720FDMS     510749484510749484         V&P FOODS          436691015E1363     
0406051449037909920028083029352    00000000300FDMS     510750946510750946         BENNETT TIME PRODU 436691015E1364     
0406051465953909920028083029352    00000039925FDMS     510751043510751043         DOGAHOLIC          436691015E12E5     
0406051425923409920028083029352    00000002800FDMS     510753882510753882         CHEZ VOUS EXPRESS  436691015E12E6     
0406051377850709920028083029352    00000001350FDMS     510754344510754344         CANDY CAKERY       436691015E12E7     
0406051440834709920028083029352    00000014005FDMS     510756232510756232         UDAYS              436691015E12E8     
0406051462823809920028083029352    00000031056FDMS     510756703510756703         GURKHA CURRY NIGHT 436691015E12E9     
0406051403094209920028083029352    00000082611FDMS     510756877510756877         ROSES GENERAL STOR 436691015E12EA     
0406051466798909920028083029352    00000017737FDMS     510757057510757057         LOVE INDIAN        436691015E12EB     
0406051461103309920028083029352    00000011942FDMS     510759046510759046         LONG SPOON LARDER  436691015E12EC     
0406051463314609920028083029352    00000006467FDMS     510761240510761240         DEXTERS            436691015E12ED     
0406051381500409920028083029352    00000003880FDMS     510761992510761992         KINGS CORNER       436691015E12EE     
0406051460098509920028083029352    00000010310FDMS     510762040510762040         BRAVOS DIDSBURY LT 436691015E12EF     
0406051472956309920028083029352    00000027308FDMS     510762453510762453         CALDBECK VILLAGE S 436691015E12F0     
0406051456502809920028083029352    00000009856FDMS     510762636510762636         PAPA JOHNS WILLENH 436691015E12F1     
0406051457576309920028083029352    00000013238FDMS     510762644510762644         PAPA JOHNS DUDLEY  436691015E12F2     
0406051423815309920028083029352    00000018550FDMS     510762883510762883         LAMBO NEWS FOOD AN 436691015E12F3     
0406051468797009920028083029352    00000045000FDMS     510763287510763287         500 DEGREES        436691015E12F4     
0406051458151409920028083029352    00000026756FDMS     510764095510764095         TIAGOS             436691015E12F5     
0406051463235409920028083029352    00000004780FDMS     510764681510764681         THE FULL ENGLISH C 436691015E12F6     
0406051472048309920028083029352    00000011592FDMS     510765068510765068         JUST FOODZ         436691015E12F7     
0406051443909809920028083029352    00000003290FDMS     510765654510765654         MONDOS PIZZERIA    436691015E12F8     
0406051459207509920028083029352    00000056245FDMS     510766629510766629         BEERBOHM           436691015E12F9     
0406051474960909920028083029352    00000061171FDMS     510767205510767205         MARLBOROUGH BAKERY 436691015E12FA     
0406051456193509920028083029352    00000002422FDMS     510767403510767403         BULGARIAN FOOD STO 436691015E12FB     
0406051456963309920028083029352    00000004740FDMS     510768369510768369         URBAN TARKA        436691015E12FC     
0406051474660509920028083029352    00000141550FDMS     510770811510770811         THE BEECHES GOLF   436691015E12FD     
0406051439287909920028083029352    00000006550FDMS     510772825510772825         GREEK STREET FOOD  436691015E12FE     
0406051348487609920028083029352    00000001300FDMS     510773583510773583         FAT FOX PIZZA DEN  436691015E12FF     
0406051472609409920028083029352    00000037725FDMS     510773641510773641         PALANQUIN INDIAN L 436691015E1300     
0406051480093509920028083029352    00000000001FDMS     510774771510774771         ROSEMARY 2 GREEK R 436691015E1381     
0406051413124409920028083029352    00000025089FDMS     510775166510775166         PEPES CHEETHAM HIL 436691015E1382     
0406051469208109920028083029352    00000098532FDMS     510775182510775182         WANDERLUST EATERY  436691015E1383     
0406051479107809920028083029352    00000005060FDMS     510776669510776669         BUN APPETITE       436691015E1384     
0406051479431909920028083029352    00000007344FDMS     510776677510776677         CHILLIES           436691015E1385     
0406051361697709920028083029352    00000000600FDMS     510777121510777121         EXPRESS BBQ        436691015E1386     
0406051376944209920028083029352    00000017580FDMS     510777766510777766         STAR GRILLZ        436691015E1387     
0406051453791409920028083029352    00000057822FDMS     510777931510777931         SEASONS MINI MARKE 436691015E1388     
0406051350316009920028083029352    00000001825FDMS     510778335510778335         MADRAS             436691015E1389     
0406051462868509920028083029352    00000017249FDMS     510779622510779622         HTTP //SPICECENTRA 436691015E138A     
0406051472735809920028083029352    00000021530FDMS     510779663510779663         BRAVOS PIZZERIA    436691015E138B     
0406051351745309920028083029352    00000028150FDMS     510781990510781990         PORTSIDELEEDS.CO.U 436691015E138C     
0406051476174009920028083029352    00000021575FDMS     510782048510782048         THE CHIP INN       436691015E138D     
0406051474819509920028083029352    00000005640FDMS     510782998510782998         SPICE BOX          436691015E138E     
0406051463153809920028083029352    00000000949FDMS     510785017510785017         CHIC O LAND        436691015E138F     
0406051352254409920028083029352    00000001398FDMS     510786502510786502         DEL PIERO S PIZZA  436691015E1390     
0406051357402509920028083029352    00000039685FDMS     510786700510786700         SPICE CABINET      436691015E1391     
0406051476799509920028083029352    00000017023FDMS     510786999510786999         VILLAGE BARGAIN    436691015E1392     
0406051436338609920028083029352    00000000879FDMS     510787062510787062         MOZAHUT            436691015E1393     
0406051476986109920028083029352    00000003395FDMS     510787096510787096         PASTALICIOUS       436691015E1394     
0406051457910509920028083029352    00000000600FDMS     510787104510787104         BELLY BUSTERS      436691015E1395     
0406051469579709920028083029352    00000009355FDMS     510788326510788326         RUCHIE TAKEAWAY LT 436691015E1396     
0406051482386609920028083029352    00000015500FDMS     510788805510788805         FAST FIT TYRES  CL 436691015E1397     
0406051484267909920028083029352    00000003096FDMS     510789209510789209         PENNYS             436691015E1398     
0406051359040009920028083029352    00000013982FDMS     510789605510789605         SUBWAY             436691015E1399     
0406051484632909920028083029352    00000014190FDMS     510790298510790298         BUT FIRST COFFEE   436691015E139A     
0406051476181709920028083029352    00000026230FDMS     510792203510792203         THE GOODE KITCHEN  436691015E139E     
0406051481329909920028083029352    00000022487FDMS     510791353510791353         AMA & DEEA         436691015E139B     
0406051385755909920028083029352    00000072658FDMS     510792088510792088         RANYA FOOD CENTRE  436691015E139C     
0406051486898309920028083029352    00000116030FDMS     510792104510792104         ONION BHAJI INDIAN 436691015E139D     
0406051483147009920028083029352    00000016528FDMS     510794498510794498         ZUMU SUSHI         436691015E139F     
0406051418702209920028083029352    00000001240FDMS     510794878510794878         KAMBLE HOUSE       436691015E13A0     
0406051484025309920028083029352    00000003560FDMS     510794902510794902         JERRYS BURGERS & D 436691015E13A1     
0406051438829609920028083029352    00000001550FDMS     510794951510794951         HUNGRY SHARK       436691015E13A2     
0406051481709309920028083029352    00000000100FDMS     510795222510795222         THE DELI           436691015E13A3     
0406051433539509920028083029352    00000009500FDMS     510795917510795917         MILLARS RESTAURANT 436691015E13A4     
0406051489213909920028083029352    00000081748FDMS     510796030510796030         FOUR HORSE SHOES   436691015E1325     
0406051468633609920028083029352    00000005344FDMS     510796444510796444         VILLAGE EAT INN    436691015E1326     
0406051488455209920028083029352    00000022140FDMS     510796469510796469         BEARSTED NEWS      436691015E1327     
0406051476204109920028083029352    00000032482FDMS     510796873510796873         SPICE HUT ORIGINAL 436691015E1328     
0406051389380209920028083029352    00000001640FDMS     510796899510796899         MIRELLA SANDWICH B 436691015E1329     
0406051478234409920028083029352    00000005685FDMS     510797749510797749         THATCHED TAVERN    436691015E132A     
0406051478037209920028083029352    00000014489FDMS     510797798510797798         FIREAWAY           436691015E132B     
0406051491141909920028083029352    00000004302FDMS     510798002510798002         HILLTOP ANIMAL AND 436691015E132C     
0406051359550309920028083029352    00000001250FDMS     510798770510798770         CHICKEN SHAAK      436691015E132D     
0406051485181709920028083029352    00000010246FDMS     510798846510798846         FOOD STOP          436691015E132E     
0406051468981909920028083029352    00000001980FDMS     510799208510799208         MOGHUL             436691015E132F     
0406051483147009920028083029352    00000061611FDMS     510800329510800329         HTTPS //ZUMUSUSHI. 436691015E1330     
0406051478171809920028083029352    00000001200FDMS     510800840510800840         THE FOUNTAIN       436691015E1331     
0406051464269609920028083029352    00000000300FDMS     510801558510801558         MY PERI PERI       436691015E1332     
0406051491626409920028083029352    00000113427FDMS     510801715510801715         WORKSOP MINI MARKE 436691015E1333     
0406051477258309920028083029352    00000050317FDMS     510801913510801913         NE-MADINA FOOD STO 436691015E1334     
0406051483048509920028083029352    00000012600FDMS     510803018510803018         MY KITCHEN         436691015E1335     
0406051471657709920028083029352    00000000690FDMS     510803059510803059         MUNCHIES           436691015E1336     
0406051487407409920028083029352    00000038701FDMS     510805435510805435         CHATKA FRANKA      436691015E1337     
0406051445167709920028083029352    00000010000FDMS     510808082510808082         VAPE CONNECT       436691015E1338     
0406051457882309920028083029352    00000005820FDMS     510809114510809114         RAMBOS             436691015E1339     
0406051466059909920028083029352    00000000150FDMS     510810559510810559         PARMOZ             436691015E133A     
0406051496932709920028083029352    00000012440FDMS     510811565510811565         HIGH TIDE FISH AND 436691015E133B     
0406051487034809920028083029352    00000000398FDMS     510811581510811581         HOLBORN HARDWARE   436691015E133C     
0406051458377109920028083029352    00000033958FDMS     510812282510812282         HENNIE PENNYS CHIC 436691015E133D     
0406051461972509920028083029352    00000001020FDMS     510813520510813520         DELISHS            436691015E133E     
0406051498152309920028083029352    00000018900FDMS     510813884510813884         THE E-CIG STORE    436691015E133F     
0406051461441509920028083029352    00000005175FDMS     510814080510814080         JUST BURGER        436691015E1340     
0406051465301609920028083029352    00000004110FDMS     510814676510814676         CAF 3              436691015E1365     
0406051477937809920028083029352    00000001800FDMS     510815269510815269         GINGER GARLIC      436691015E1366     
0406051362457809920028083029352    00000009801FDMS     510815319510815319         V VAPOUR           436691015E1367     
0406051453061309920028083029352    00000001797FDMS     510816564510816564         CHAMPIONS          436691015E1368     
0406051484483209920028083029352    00000006248FDMS     510817224510817224         RICKSHA            436691015E1369     
0406051496855609920028083029352    00000023660FDMS     510817554510817554         WWW.CHARCOALGRILLT 436691015E136A     
0406051499552009920028083029352    00000001000FDMS     510817620510817620         GOLDEN WOK         436691015E136B     
0406051480510009920028083029352    00000011490FDMS     510818719510818719         GRILLOS CROYDON    436691015E136C     
0406051501834909920028083029352    00000048220FDMS     510819055510819055         THE E-CIG STORE CO 436691015E136D     
0406051490425309920028083029352    00000001099FDMS     510819253510819253         INDYS PIZZA        436691015E136E     
0406051498134709920028083029352    00000029734FDMS     510820715510820715         PAXCROFT STORES    436691015E136F     
0406051502523309920028083029352    00000005098FDMS     510821499510821499         GINOS              436691015E1370     
0406051429037009920028083029352    00000014503FDMS     510822190510822190         KASPAS             436691015E1371     
0406051482192909920028083029352    00000005210FDMS     510825243510825243         SHOLVER TANDOORI   436691015E1375     
0406051503220209920028083029352    00000002313FDMS     510823941510823941         JSG WINE MERCHANTS 436691015E1372     
0406051496659409920028083029352    00000038820FDMS     510823966510823966         CHAAYE PAANI HUDDE 436691015E1373     
0406051433191109920028083029352    00000004690FDMS     510824022510824022         BAKERS KITCHEN & C 436691015E1374     
0406051377588909920028083029352    00000001770FDMS     510825342510825342         SHREWSBURY BBQ & G 436691015E1376     
0406051486359809920028083029352    00000013376FDMS     510825581510825581         WOFA JOE MARKET    436691015E1377     
0406051504442209920028083029352    00000006900FDMS     510826829510826829         THE E-CIG STORE MA 436691015E1378     
0406051498051909920028083029352    00000016880FDMS     510827942510827942         WWW.EXPRESSKEBABSP 436691015E1379     
0406051501441409920028083029352    00000007979FDMS     510828833510828833         THE SOUKAS SUPERMA 436691015E137A     
0406051488505709920028083029352    00000010292FDMS     510829625510829625         AL FLAH GROCERY    436691015E137B     
0406051497157209920028083029352    00000000955FDMS     510835598510835598         ABERAMAN PIZZA & K 436691015E137C     
0406051388822009920028083029352    00000000680FDMS     510836745510836745         TWO FAT INDIANS    436691015E137D     
0406051507531809920028083029352    00000014986FDMS     510839558510839558         PIZZA GOGO         436691015E137E     
0413072990091709920028083029352    00000119142FDMS     508175148508175148         MUTHOOT FINANCE UK 436691015E6D2E     
0413072990091709920028083029352    00000037707FDMS     508175155508175155         MUTHOOT FINANCE UK 436691015E6D2F     
0413072990091709920028083029352    00000631885FDMS     508175163508175163         MUTHOOT FINANCE UK 436691015E6D30     
0406051501880909920028083029352    00000021532FDMS     508762259508762259         CHAIRA BROTHERS ST 436691015E6DF2     
0406051424849509920028083029352    00000136448FDMS     507682144507682144         WHITEROSE CATERING 436691015E6DF1     
0406051486501709920028083029352    00000025913FDMS     509368353509368353         SUNNYSIDE POST OFF 436691015E6DF3     
0406051483691109920028083029352    00000031990FDMS     509433371509433371         GRANGEWOK          436691015E6DF4     
0406051355071109920028083029352    00000062600FDMS     509571774509571774         WWW.MERIDIANAPARTM 436691015E6DF5     
0406051462857009920028083029352    00000019510FDMS     509759171509759171         NABABONLINE.CO.UK  436691015E6DF7     
0406051403440609920028083029352    00000054000FDMS     509832432509832432         PRACTICAL CAR AND  436691015E6DF8     
0406051418914709920028083029352    00000061334FDMS     509997078509997078         ONE BEST CONVENIEN 436691015E6DF9     
0406051447530309920028083029352    00000016212FDMS     510082688510082688         CREAMS CAFE        436691015E6DFA     
0406051455830609920028083029352    00000004100FDMS     510166432510166432         BUBBLE WAFFLE HOUS 436691015E6DFB     
0406051356031009920028083029352    00000002525FDMS     510331812510331812         INDIAN FLAVOUR     436691015E6DFC     
0406051357976309920028083029352    00000021450FDMS     510353717510353717         FUSION GRILL       436691015E6DFD     
0406051471646409920028083029352    00000001565FDMS     510416159510416159         CHOP AND WOK       436691015E6DFE     
0406051377461709920028083029352    00000001300FDMS     510417793510417793         SAFFRON HOUSE      436691015E6DFF     
0406051349316609920028083029352    00000025210FDMS     510507528510507528         NEW HONG SING      436691015E6E00     
0406051349055909920028083029352    00000001900FDMS     510508260510508260         BALTI SPICE        436691015E6E01     
0406051374027509920028083029352    00000008262FDMS     509645826509645826         C & L STORES       436691015E6DF6     
0406051423933309920028083029352    00000001120FDMS     510519424510519424         FLORENCE FRIED CHI 436691015E6DB1     
0406051384723809920028083029352    00000000570FDMS     510517485510517485         SMOKYS             436691015E6E02     
0406051481919909920028083029352    00000010060FDMS     510519762510519762         BEST KEBAB PANMURE 436691015E6DB2     
0406051410409009920028083029352    00000000499FDMS     510526635510526635         KABAB HOUSE        436691015E6DB3     
0406051412109509920028083029352    00000004885FDMS     510526775510526775         HAZEL SPICE        436691015E6DB4     
0406051405098209920028083029352    00000003810FDMS     510532484510532484         LANCASTER FOOD COU 436691015E6DB5     
0406051411606509920028083029352    00000009025FDMS     510535636510535636         MEZBAN INDIAN REST 436691015E6DB6     
0406051395822509920028083029352    00000001300FDMS     510541204510541204         THREE PEAKS        436691015E6DB7     
0406051410360009920028083029352    00000005830FDMS     510543739510543739         FLASH IN  THE PAN  436691015E6DB8     
0406051409378109920028083029352    00000011640FDMS     510550890510550890         CHOC STOP          436691015E6DB9     
0406051356586909920028083029352    00000009985FDMS     510576457510576457         CLYDACH TANDOORI   436691015E6DBB     
0406051407471609920028083029352    00000019170FDMS     510582968510582968         CHILLI BANANA      436691015E6DBC     
0406051438942609920028083029352    00000007707FDMS     510584444510584444         THE ROYAL          436691015E6DBD     
0406051427611909920028083029352    00000003310FDMS     510586209510586209         SPICE MAGIC        436691015E6DBE     
0406051443470209920028083029352    00000085988FDMS     510586266510586266         GURKHA HILL        436691015E6DBF     
0406051356562909920028083029352    00000014503FDMS     510595408510595408         GREEK ZANTE STREET 436691015E6DC0     
0406051363894409920028083029352    00000001820FDMS     510596026510596026         CINAMON            436691015E6DC1     
0406051357899009920028083029352    00000033470FDMS     510596059510596059         MR COD             436691015E6DC2     
0406051353465109920028083029352    00000132802FDMS     510596141510596141         SIMPLY H/W AND POU 436691015E6DC3     
0406051387728209920028083029352    00000006450FDMS     510596513510596513         B MEDINA           436691015E6DC4     
0406051363013209920028083029352    00000002300FDMS     510599657510599657         CASPIAN PIZZA      436691015E6DC5     
0406051444333509920028083029352    00000008350FDMS     510600265510600265         TWICE THE SPICE    436691015E6DC6     
0406051392963709920028083029352    00000019292FDMS     510603152510603152         SHINE FOOD & WINE  436691015E6DC7     
0406051354512209920028083029352    00000015619FDMS     510604358510604358         NORTHMAN COFFEE    436691015E6DC8     
0406051348346109920028083029352    00000045131FDMS     510604366510604366         GRILLOS            436691015E6DC9     
0406051370272009920028083029352    00000006650FDMS     510604671510604671         TASTE OF GLEBE     436691015E6DCA     
0406051358241809920028083029352    00000003150FDMS     510610066510610066         BLUE SPICE         436691015E6DCB     
0406051380629209920028083029352    00000100305FDMS     510610264510610264         HTTPS //WWW.THEAIR 436691015E6DCC     
0406051359275809920028083029352    00000003258FDMS     510610496510610496         KING GRILL PIZZA   436691015E6DCD     
0406051373179309920028083029352    00000134284FDMS     510611726510611726         WWW.NUMBEREIGHTCLO 436691015E6DCE     
0406051350403209920028083029352    00000012000FDMS     510612542510612542         VILLAGGIO HOTEL &  436691015E6DCF     
0406051381496009920028083029352    00000003459FDMS     510612872510612872         ASHFORD PERI PERI  436691015E6DD0     
0406051376346909920028083029352    00000027158FDMS     510613037510613037         BIDFORD PET CO     436691015E6DD1     
0406051353720109920028083029352    00000001800FDMS     510614241510614241         CHICOS             436691015E6DD2     
0406051452759409920028083029352    00000010556FDMS     510614373510614373         PIZZA KING         436691015E6DD3     
0406051384507809920028083029352    00000001589FDMS     510617103510617103         IBRAHIMS TASTY BIT 436691015E6DD4     
0406051374604109920028083029352    00000003280FDMS     510619687510619687         TEMPLE INDIAN CUIS 436691015E6DD5     
0406051365612309920028083029352    00000000795FDMS     510619760510619760         POPPY HANA         436691015E6DD6     
0406051409858309920028083029352    00000016280FDMS     510620297510620297         COOMBEND FISH BAR  436691015E6DD7     
0406051351676909920028083029352    00000007310FDMS     510622822510622822         O GRILL            436691015E6DD8     
0406051380218109920028083029352    00000000610FDMS     510622863510622863         THE LOCAL CHIPPY   436691015E6DD9     
0406051370896309920028083029352    00000002800FDMS     510626385510626385         TUK TUK INDIAN TAK 436691015E6DDA     
0406051382690209920028083029352    00000009350FDMS     510628407510628407         WALTON FRIED CHICK 436691015E6DDB     
0406051396319909920028083029352    00000146380FDMS     510628522510628522         SEA FRONT          436691015E6DDC     
0406051396319909920028083029352    00000009605FDMS     510628530510628530         SEA FRONT          436691015E6DDD     
0406051395159509920028083029352    00000006720FDMS     510630361510630361         CURRY MERCHANTS    436691015E6DDE     
0406051425747609920028083029352    00000012700FDMS     510630429510630429         FONE REVIVE        436691015E6DDF     
0406051361730109920028083029352    00000024975FDMS     510631112510631112         NOLE SOURDOUGH PIZ 436691015E6DE0     
0406051396888009920028083029352    00000006041FDMS     510632300510632300         ROSE INDIAN TAKEAW 436691015E6DE1     
0406051382625809920028083029352    00000123240FDMS     510633829510633829         FOWEY RIVER GALLER 436691015E6DE2     
0406051353377909920028083029352    00000019145FDMS     510634744510634744         SUNNY BEACH RESTAU 436691015E6DE3     
0406051390565309920028083029352    00000000900FDMS     510639172510639172         THE TASTY DISH     436691015E6DE4     
0406051397690609920028083029352    00000032310FDMS     510640808510640808         YIMCHAI            436691015E6DE5     
0406051366167709920028083029352    00000006750FDMS     510641707510641707         THE FERN SANDWICH  436691015E6DE6     
0406051367346909920028083029352    00000031500FDMS     510642572510642572         FONE REVIVE        436691015E6DE7     
0406051395711809920028083029352    00000000550FDMS     510642747510642747         TREETON PIZZA EXPR 436691015E6DE8     
0406051398852909920028083029352    00000003003FDMS     510643539510643539         LOVE SHAWARMA      436691015E6DE9     
0406051394356109920028083029352    00000011800FDMS     510644719510644719         FLAMES EXPRESS     436691015E6DEA     
0406051386367709920028083029352    00000005350FDMS     510646680510646680         WWW.GRUBGRAB.CO.UK 436691015E6DEB     
0406051397199909920028083029352    00000040024FDMS     510646763510646763         BATH ROAD LOCAL    436691015E6DEC     
0406051406657709920028083029352    00000001760FDMS     510647498510647498         RED TOMATO         436691015E6DED     
0406051373860609920028083029352    00000016384FDMS     510647654510647654         WELL HALL TANDOORI 436691015E6DEE     
0406051363185709920028083029352    00000106932FDMS     510648041510648041         M11 LOCAL          436691015E6DEF     
0406051430860409920028083029352    00000000500FDMS     510650575510650575         WOW 2              436691015E6DF0     
0406051412526909920028083029352    00000008630FDMS     510652878510652878         KULLAR FISH BAR    436691015E6D71     
0406051401043209920028083029352    00000003576FDMS     510653918510653918         MAGAZIN ROMANESC T 436691015E6D72     
0406051377527109920028083029352    00000000999FDMS     510654064510654064         IRO SUSHI          436691015E6D73     
0406051348556709920028083029352    00000007468FDMS     510655038510655038         TUNNOCKS           436691015E6D74     
0406051410620909920028083029352    00000003969FDMS     510655798510655798         BEST GRILL SHAWARM 436691015E6D75     
0406051406773109920028083029352    00000015282FDMS     510656853510656853         TAJ MAHAL NIGHT    436691015E6D76     
0406051415999509920028083029352    00000001530FDMS     510657190510657190         SHIMLA TANDOORI    436691015E6D77     
0406051393509509920028083029352    00000001498FDMS     510662208510662208         PIZZA BOX          436691015E6D78     
0406051415832109920028083029352    00000014094FDMS     510662463510662463         FLAVAS PIZZA & PER 436691015E6D79     
0406051406416309920028083029352    00000015778FDMS     510663057510663057         WEST KEBAB & BURGE 436691015E6D7A     
0406051421598409920028083029352    00000015690FDMS     510665508510665508         QUEENS FISH AND TI 436691015E6D7B     
0406051418506409920028083029352    00000002750FDMS     510666613510666613         ATILLA KEBAB HOUSE 436691015E6D7C     
0406051421199309920028083029352    00000027747FDMS     510668817510668817         HYDERABADI ZAIQA   436691015E6D7D     
0406051403066909920028083029352    00000000400FDMS     510669799510669799         CHICK-INN          436691015E6D7E     
0406051435461609920028083029352    00000003245FDMS     510669856510669856         HEROLICIOUS        436691015E6D7F     
0406051392213909920028083029352    00000004364FDMS     510671456510671456         KATHMANDU FUSION   436691015E6D80     
0406051381394909920028083029352    00000003367FDMS     510671795510671795         WING HUT           436691015E6D81     
0406051394747009920028083029352    00000019642FDMS     510672876510672876         SHALIMAR TANDOORI  436691015E6D82     
0406051418368909920028083029352    00000003740FDMS     510674518510674518         2020 PIZZA GRILL   436691015E6D83     
0406051403956609920028083029352    00000007100FDMS     510674799510674799         DOLCE & GELATO     436691015E6D84     
0406051411156409920028083029352    00000004520FDMS     510675028510675028         3BZ                436691015E6D85     
0406051390818509920028083029352    00000003156FDMS     510675739510675739         HFCPIZZACOTTAGE.CO 436691015E6D86     
0406051361377109920028083029352    00000003540FDMS     510678311510678311         TURKISH DELIGHT    436691015E6D87     
0406051426661609920028083029352    00000114450FDMS     510679640510679640         THE BEST BROASTED  436691015E6D88     
0406051426623109920028083029352    00000004086FDMS     510680739510680739         YO DESI            436691015E6D89     
0406051412235009920028083029352    00000039967FDMS     510681927510681927         PRO SHOP           436691015E6D8A     
0406051415266809920028083029352    00000010200FDMS     510683683510683683         DFC CHICKEN & PIZZ 436691015E6D8B     
0406051426737609920028083029352    00000003929FDMS     510685837510685837         PIZZALICIOUS       436691015E6D8C     
0406051421275209920028083029352    00000016805FDMS     510686249510686249         MEXIFUN            436691015E6D8D     
0406051351745309920028083029352    00000042660FDMS     510686272510686272         ATLANTIS FISH & CH 436691015E6D8E     
0406051441264809920028083029352    00000007950FDMS     510687650510687650         SPICE THAI         436691015E6D8F     
0406051394689209920028083029352    00000039525FDMS     510690589510690589         HOOK ROAD FOOD & W 436691015E6D90     
0406051398956609920028083029352    00000002565FDMS     510690746510690746         ANISE INDIAN RESTA 436691015E6D91     
0406051444356109920028083029352    00000001130FDMS     510696503510696503         THE CHARCOAL HOB   436691015E6D92     
0406051440308909920028083029352    00000002950FDMS     510696677510696677         PAPA KALS          436691015E6D93     
0406051443790109920028083029352    00000040268FDMS     510697469510697469         BEST ONE           436691015E6D94     
0406051363554509920028083029352    00000005993FDMS     510697600510697600         NAPOLI PIZZA       436691015E6D95     
0406051439924209920028083029352    00000011520FDMS     510698020510698020         HTTPS //WWW.CODFAT 436691015E6D96     
0406051381768909920028083029352    00000001649FDMS     510698046510698046         FINEST PIZZA       436691015E6D97     
0406051448139609920028083029352    00000004400FDMS     510698814510698814         DIAL A SHAKE       436691015E6D98     
0406051374237909920028083029352    00000023330FDMS     510699788510699788         PIZZAHOLICS        436691015E6D99     
0406051410554909920028083029352    00000013100FDMS     510701964510701964         FRESH FISH         436691015E6D9A     
0406051402911109920028083029352    00000052018FDMS     510702749510702749         PENDAS WAY OFF LIC 436691015E6D9C     
0406051365548409920028083029352    00000012922FDMS     510704240510704240         JOLLOF FOOD STORE  436691015E6D9D     
0406051410554909920028083029352    00000003500FDMS     510707433510707433         FRESH FISH         436691015E6D9E     
0406051409461709920028083029352    00000014838FDMS     510709702510709702         EATIGO FAST FOOD   436691015E6D9F     
0406051417450109920028083029352    00000013735FDMS     510714298510714298         HANDI RESTAURANT   436691015E6DA0     
0406051453634209920028083029352    00000005940FDMS     510716855510716855         LITTLE ITALY       436691015E6DA1     
0406051441827309920028083029352    00000005654FDMS     510718448510718448         ADORA PIZZA        436691015E6DA2     
0406051431400309920028083029352    00000036227FDMS     510720790510720790         PERI PERI ORIGINAL 436691015E6DA3     
0406051457014309920028083029352    00000015000FDMS     510721632510721632         FONEREVIVE         436691015E6DA4     
0406051454070109920028083029352    00000006248FDMS     510722267510722267         V S P WINES        436691015E6DA5     
0406051380729109920028083029352    00000008931FDMS     510722895510722895         KJ S DINER         436691015E6DA6     
0406051348454709920028083029352    00000010850FDMS     510726565510726565         TIKKAS             436691015E6DA7     
0406051454552909920028083029352    00000003478FDMS     510728603510728603         THE TYNE BITE      436691015E6DA8     
0406051452860809920028083029352    00000001398FDMS     510729593510729593         PIZZERIA MILANO    436691015E6DA9     
0406051428924209920028083029352    00000007475FDMS     510729932510729932         MEDITERRANEVM.TOUC 436691015E6DAA     
0406051439287909920028083029352    00000020570FDMS     510730625510730625         GREEKSTREETFOOD.TO 436691015E6DAB     
0406051457623309920028083029352    00000003252FDMS     510731136510731136         MARCHEE JOTALIMA   436691015E6DAC     
0406051449843409920028083029352    00000001850FDMS     510732159510732159         PAPA GINOS         436691015E6DAD     
0406051381052209920028083029352    00000026125FDMS     510732803510732803         MANJAROS           436691015E6DAE     
0406051440945409920028083029352    00000007930FDMS     510733074510733074         WWW.NEWMAYFLOWERBU 436691015E6DAF     
0406051389605209920028083029352    00000026840FDMS     510733082510733082         CHA CHA CHAI       436691015E6DB0     
0406051462665409920028083029352    00000002110FDMS     510735608510735608         THE PIZZA SHOP     436691015E6D31     
0406051361730109920028083029352    00000011800FDMS     510735855510735855         NOLE PIZZA         436691015E6D32     
0406051451937909920028083029352    00000000250FDMS     510735988510735988         CAFE 17            436691015E6D33     
0406051454407709920028083029352    00000022210FDMS     510736937510736937         WARDS CASH AND CAR 436691015E6D34     
0406051448321909920028083029352    00000010023FDMS     510737273510737273         ASIF FOOD LIMITED  436691015E6D35     
0406051439249409920028083029352    00000010250FDMS     510740426510740426         SMOKY BOYS         436691015E6D36     
0405050000001309920028083029352    00000008042FDMS     510740947510740947         TALKREMIT  -  TRGE 436691015E6D2D     
0406051438112209920028083029352    00000004700FDMS     510741317510741317         CINNAMON INDIAN TA 436691015E6D37     
0406051461907909920028083029352    00000004720FDMS     510741960510741960         BERLIN DONER       436691015E6D38     
0406051461133409920028083029352    00000023678FDMS     510743685510743685         CENTRAL SUPERMEARK 436691015E6D39     
0406051451332609920028083029352    00000004815FDMS     510744824510744824         500 DEGREES        436691015E6D3A     
0406051413871809920028083029352    00000100000FDMS     510746209510746209         GREAT NORTH AUTO C 436691015E6D3B     
0406051438563709920028083029352    00000000799FDMS     510749468510749468         LUKSHAZ PERI PERI  436691015E6D3C     
0406051464644009920028083029352    00000003548FDMS     510750656510750656         QUICKFIX SUPPLIES  436691015E6D3D     
0406051449037909920028083029352    00000035090FDMS     510750938510750938         BENNETT TIME PRODU 436691015E6D3E     
0406051449037909920028083029352    00000011665FDMS     510750946510750946         BENNETT TIME PRODU 436691015E6D3F     
0406051437675509920028083029352    00000024240FDMS     510753155510753155         MIDDX PLUMB & ELEC 436691015E6D40     
0406051377850709920028083029352    00000000400FDMS     510754344510754344         CANDY CAKERY       436691015E6D41     
0406051462823809920028083029352    00000013610FDMS     510756703510756703         GURKHA CURRY NIGHT 436691015E6D42     
0406051403094209920028083029352    00000017867FDMS     510756877510756877         ROSES GENERAL STOR 436691015E6D43     
0406051406150409920028083029352    00000033714FDMS     510760192510760192         OGGY OGGY          436691015E6D44     
0406051463314609920028083029352    00000001350FDMS     510761240510761240         DEXTERS            436691015E6D45     
0406051381500409920028083029352    00000000798FDMS     510761992510761992         KINGS CORNER       436691015E6D46     
0406051460098509920028083029352    00000015570FDMS     510762040510762040         BRAVOS DIDSBURY LT 436691015E6D47     
0406051472956309920028083029352    00000092657FDMS     510762453510762453         CALDBECK VILLAGE S 436691015E6D48     
0406051456502809920028083029352    00000023983FDMS     510762636510762636         PAPA JOHNS WILLENH 436691015E6D49     
0406051457576309920028083029352    00000012368FDMS     510762644510762644         PAPA JOHNS DUDLEY  436691015E6D4A     
0406051423815309920028083029352    00000026983FDMS     510762883510762883         LAMBO NEWS FOOD AN 436691015E6D4B     
0406051468797009920028083029352    00000035460FDMS     510763287510763287         500 DEGREES        436691015E6D4C     
0406051458151409920028083029352    00000031894FDMS     510764095510764095         TIAGOS             436691015E6D4D     
0406051463235409920028083029352    00000004500FDMS     510764681510764681         THE FULL ENGLISH C 436691015E6D4E     
0406051472016109920028083029352    00000001647FDMS     510764996510764996         WAFF-LA-BURG       436691015E6D4F     
0406051472048309920028083029352    00000015711FDMS     510765068510765068         JUST FOODZ         436691015E6D50     
0406051443909809920028083029352    00000007740FDMS     510765654510765654         MONDOS PIZZERIA    436691015E6D51     
0406051456193509920028083029352    00000000984FDMS     510767403510767403         BULGARIAN FOOD STO 436691015E6D52     
0406051456963309920028083029352    00000032575FDMS     510768369510768369         URBAN TARKA        436691015E6D53     
0406051474660509920028083029352    00000045960FDMS     510770811510770811         THE BEECHES GOLF   436691015E6D54     
0406051472609409920028083029352    00000010925FDMS     510773641510773641         PALANQUIN INDIAN L 436691015E6D55     
0406051413124409920028083029352    00000017416FDMS     510775166510775166         PEPES CHEETHAM HIL 436691015E6D56     
0406051469208109920028083029352    00000079579FDMS     510775182510775182         WANDERLUST EATERY  436691015E6D57     
0406051479107809920028083029352    00000005070FDMS     510776669510776669         BUN APPETITE       436691015E6D58     
0406051479431909920028083029352    00000005899FDMS     510776677510776677         CHILLIES           436691015E6D59     
0406051361697709920028083029352    00000002530FDMS     510777121510777121         EXPRESS BBQ        436691015E6D5A     
0406051376944209920028083029352    00000015190FDMS     510777766510777766         STAR GRILLZ        436691015E6D5B     
0406051453791409920028083029352    00000070198FDMS     510777931510777931         SEASONS MINI MARKE 436691015E6D5C     
0406051350316009920028083029352    00000001400FDMS     510778335510778335         MADRAS             436691015E6D5D     
0406051472735809920028083029352    00000027420FDMS     510779663510779663         BRAVOS PIZZERIA    436691015E6D5E     
0406051477245109920028083029352    00000002723FDMS     510781438510781438         SOLAF STORE        436691015E6D5F     
0406051351745309920028083029352    00000009830FDMS     510781990510781990         PORTSIDELEEDS.CO.U 436691015E6D60     
0406051476174009920028083029352    00000006680FDMS     510782048510782048         THE CHIP INN       436691015E6D61     
0406051474819509920028083029352    00000005610FDMS     510782998510782998         SPICE BOX          436691015E6D62     
0406051463153809920028083029352    00000004277FDMS     510785017510785017         CHIC O LAND        436691015E6D63     
0406051352254409920028083029352    00000001200FDMS     510786502510786502         DEL PIERO S PIZZA  436691015E6D64     
0406051357402509920028083029352    00000021110FDMS     510786700510786700         SPICE CABINET      436691015E6D65     
0406051476799509920028083029352    00000030302FDMS     510786999510786999         VILLAGE BARGAIN    436691015E6D66     
0406051469579709920028083029352    00000016965FDMS     510788326510788326         RUCHIE TAKEAWAY LT 436691015E6D67     
0406051482386609920028083029352    00000015000FDMS     510788805510788805         FAST FIT TYRES  CL 436691015E6D68     
0406051484267909920028083029352    00000001549FDMS     510789209510789209         PENNYS             436691015E6D69     
0406051484632909920028083029352    00000006000FDMS     510790298510790298         BUT FIRST COFFEE   436691015E6D6A     
0406051481329909920028083029352    00000016385FDMS     510791353510791353         AMA & DEEA         436691015E6D6B     
0406051385755909920028083029352    00000068123FDMS     510792088510792088         RANYA FOOD CENTRE  436691015E6D6C     
0406051486898309920028083029352    00000049480FDMS     510792104510792104         ONION BHAJI INDIAN 436691015E6D6D     
0406051418702209920028083029352    00000015440FDMS     510794878510794878         KAMBLE HOUSE       436691015E6D6E     
0406051438829609920028083029352    00000010150FDMS     510794951510794951         HUNGRY SHARK       436691015E6D6F     
0406051468633609920028083029352    00000010362FDMS     510796444510796444         VILLAGE EAT INN    436691015E6D70     
0406051488455209920028083029352    00000027411FDMS     510796469510796469         BEARSTED NEWS      436691015E6D03     
0406051476204109920028083029352    00000042761FDMS     510796873510796873         SPICE HUT ORIGINAL 436691015E6D04     
0406051478234409920028083029352    00000007245FDMS     510797749510797749         THATCHED TAVERN    436691015E6D05     
0406051491141909920028083029352    00000001250FDMS     510798002510798002         HILLTOP ANIMAL AND 436691015E6D06     
0406051485181709920028083029352    00000007616FDMS     510798846510798846         FOOD STOP          436691015E6D07     
0406051468981909920028083029352    00000002872FDMS     510799208510799208         MOGHUL             436691015E6D08     
0406051491626409920028083029352    00000092604FDMS     510801715510801715         WORKSOP MINI MARKE 436691015E6D09     
0406051477258309920028083029352    00000058881FDMS     510801913510801913         NE-MADINA FOOD STO 436691015E6D0A     
0406051483048509920028083029352    00000002095FDMS     510803018510803018         MY KITCHEN         436691015E6D0B     
0406051471657709920028083029352    00000000450FDMS     510803059510803059         MUNCHIES           436691015E6D0C     
0406051487407409920028083029352    00000017972FDMS     510805435510805435         CHATKA FRANKA      436691015E6D0D     
0406051438533409920028083029352    00000001360FDMS     510806771510806771         SWEET AND CHEESE   436691015E6D0E     
0406051445167709920028083029352    00000009400FDMS     510808082510808082         VAPE CONNECT       436691015E6D0F     
0406051457882309920028083029352    00000006740FDMS     510809114510809114         RAMBOS             436691015E6D10     
0406051466059909920028083029352    00000003390FDMS     510810559510810559         PARMOZ             436691015E6D11     
0406051496932709920028083029352    00000008805FDMS     510811565510811565         HIGH TIDE FISH AND 436691015E6D12     
0406051461972509920028083029352    00000001197FDMS     510813520510813520         DELISHS            436691015E6D13     
0406051465301609920028083029352    00000004760FDMS     510814676510814676         CAF 3              436691015E6D14     
0406051477937809920028083029352    00000004800FDMS     510815269510815269         GINGER GARLIC      436691015E6D15     
0406051362457809920028083029352    00000014893FDMS     510815319510815319         V VAPOUR           436691015E6D16     
0406051453061309920028083029352    00000002333FDMS     510816564510816564         CHAMPIONS          436691015E6D17     
0406051484483209920028083029352    00000010178FDMS     510817224510817224         RICKSHA            436691015E6D18     
0406051496855609920028083029352    00000011930FDMS     510817554510817554         WWW.CHARCOALGRILLT 436691015E6D19     
0406051499552009920028083029352    00000009850FDMS     510817620510817620         GOLDEN WOK         436691015E6D1A     
0406051480510009920028083029352    00000021048FDMS     510818719510818719         GRILLOS CROYDON    436691015E6D1B     
0406051490425309920028083029352    00000000399FDMS     510819253510819253         INDYS PIZZA        436691015E6D1C     
0406051498134709920028083029352    00000015933FDMS     510820715510820715         PAXCROFT STORES    436691015E6D1D     
0406051502523309920028083029352    00000002595FDMS     510821499510821499         GINOS              436691015E6D1E     
0406051429037009920028083029352    00000011838FDMS     510822190510822190         KASPAS             436691015E6D1F     
0406051496659409920028083029352    00000049600FDMS     510823966510823966         CHAAYE PAANI HUDDE 436691015E6D20     
0406051482192909920028083029352    00000001180FDMS     510825243510825243         SHOLVER TANDOORI   436691015E6D21     
0406051475858409920028083029352    00000002110FDMS     510825250510825250         TODAYS SHARWARMA   436691015E6D22     
0406051377588909920028083029352    00000002240FDMS     510825342510825342         SHREWSBURY BBQ & G 436691015E6D23     
0406051486359809920028083029352    00000024163FDMS     510825581510825581         WOFA JOE MARKET    436691015E6D24     
0406051470171909920028083029352    00000001750FDMS     510826894510826894         MASH AND FLIP      436691015E6D25     
0406051503896009920028083029352    00000001520FDMS     510826902510826902         BILTON TAKEAWAY    436691015E6D26     
0406051498051909920028083029352    00000012540FDMS     510827942510827942         WWW.EXPRESSKEBABSP 436691015E6D27     
0406051501441409920028083029352    00000009267FDMS     510828833510828833         THE SOUKAS SUPERMA 436691015E6D28     
0406051488505709920028083029352    00000027851FDMS     510829625510829625         AL FLAH GROCERY    436691015E6D29     
0406051388822009920028083029352    00000002850FDMS     510836745510836745         TWO FAT INDIANS    436691015E6D2A     
0406051507384709920028083029352    00000006639FDMS     510838865510838865         CHILLI SPICE       436691015E6D2B     
0406051507531809920028083029352    00000032433FDMS     510839558510839558         PIZZA GOGO         436691015E6D2C     
0406051424849509920028083029352    00000100679FDMS     507682144507682144         WHITEROSE CATERING 43669101604EB2     
0406051501880909920028083029352    00000030930FDMS     508762259508762259         CHAIRA BROTHERS ST 43669101604EB3     
0406051420109409920028083029352    00000019800FDMS     510553977510553977         HTTPS //LUXNIGHTZZ 436691015E6DBA     
0406051486501709920028083029352    00000117534FDMS     509368353509368353         SUNNYSIDE POST OFF 43669101604EE3     
0406051415582909920028083029352    00000011140FDMS     509389052509389052         THE RED BERRY CLUB 43669101604EE4     
0406051483691109920028083029352    00000061520FDMS     509433371509433371         GRANGEWOK          43669101604EE5     
0406051355071109920028083029352    00000118600FDMS     509571774509571774         WWW.MERIDIANAPARTM 43669101604EE6     
0406051450757509920028083029352    00000087595FDMS     509771549509771549         WESTLEIGH CONVENIE 43669101604EE7     
0406051418914709920028083029352    00000089599FDMS     509997078509997078         ONE BEST CONVENIEN 43669101604EE8     
0406051447530309920028083029352    00000008785FDMS     510082688510082688         CREAMS CAFE        43669101604EE9     
0406051455830609920028083029352    00000011648FDMS     510166432510166432         BUBBLE WAFFLE HOUS 43669101604EEA     
0406051356031009920028083029352    00000017490FDMS     510331812510331812         INDIAN FLAVOUR     43669101604EEB     
0406051357976309920028083029352    00000012840FDMS     510353717510353717         FUSION GRILL       43669101604EEC     
0406051471646409920028083029352    00000006735FDMS     510416159510416159         CHOP AND WOK       43669101604EED     
0406051377461709920028083029352    00000031300FDMS     510417793510417793         SAFFRON HOUSE      43669101604EEE     
0406051349316609920028083029352    00000026260FDMS     510507528510507528         NEW HONG SING      43669101604EF0     
0406051349055909920028083029352    00000013072FDMS     510508260510508260         BALTI SPICE        43669101604EF1     
0406051423933309920028083029352    00000001750FDMS     510519424510519424         FLORENCE FRIED CHI 43669101604EF3     
0406051410409009920028083029352    00000002146FDMS     510526635510526635         KABAB HOUSE        43669101604E84     
0406051412109509920028083029352    00000035875FDMS     510526775510526775         HAZEL SPICE        43669101604E85     
0406051349076609920028083029352    00000012149FDMS     510500218510500218         GRILL HOUSE        43669101604EEF     
0406051349126909920028083029352    00000015053FDMS     510513492510513492         IPSWICH AFRO-CARIB 43669101604EF2     
0406051481919909920028083029352    00000017208FDMS     510519762510519762         BEST KEBAB PANMURE 43669101604E83     
0406051405098209920028083029352    00000001499FDMS     510532484510532484         LANCASTER FOOD COU 43669101604E86     
0406051411606509920028083029352    00000038450FDMS     510535636510535636         MEZBAN INDIAN REST 43669101604E87     
0406051395822509920028083029352    00000003100FDMS     510541204510541204         THREE PEAKS        43669101604E88     
0406051380215709920028083029352    00000061200FDMS     510542327510542327         JESSIES PICK N MIX 43669101604E89     
0406051410360009920028083029352    00000011615FDMS     510543739510543739         FLASH IN  THE PAN  43669101604E8A     
0406051382508109920028083029352    00000009051FDMS     510567522510567522         WISHAW NEWSBOX     43669101604E8D     
0406051390178009920028083029352    00000004050FDMS     510575988510575988         CHIPPY PLUS        43669101604E8E     
0406051356586909920028083029352    00000053540FDMS     510576457510576457         CLYDACH TANDOORI   43669101604E8F     
0406051359676809920028083029352    00000004920FDMS     510577083510577083         PANTHEON RESTAURAN 43669101604E90     
0406051407471609920028083029352    00000026520FDMS     510582968510582968         CHILLI BANANA      43669101604E91     
0406051438942609920028083029352    00000001275FDMS     510584444510584444         THE ROYAL          43669101604E92     
0406051427611909920028083029352    00000005899FDMS     510586209510586209         SPICE MAGIC        43669101604E93     
0406051443470209920028083029352    00000153535FDMS     510586266510586266         GURKHA HILL        43669101604E94     
0406051359124909920028083029352    00000010615FDMS     510586985510586985         MILLIE S DELI & DE 43669101604E95     
0406051356562909920028083029352    00000016343FDMS     510595408510595408         GREEK ZANTE STREET 43669101604E96     
0406051363894409920028083029352    00000031400FDMS     510596026510596026         CINAMON            43669101604E97     
0406051357899009920028083029352    00000049367FDMS     510596059510596059         MR COD             43669101604E98     
0406051353465109920028083029352    00000303010FDMS     510596141510596141         SIMPLY H/W AND POU 43669101604E99     
0406051387728209920028083029352    00000002350FDMS     510596513510596513         B MEDINA           43669101604E9A     
0406051363013209920028083029352    00000006399FDMS     510599657510599657         CASPIAN PIZZA      43669101604E9B     
0406051427057709920028083029352    00000075237FDMS     510600133510600133         EVIM- POUND PLUS   43669101604E9C     
0406051444333509920028083029352    00000021216FDMS     510600265510600265         TWICE THE SPICE    43669101604E9D     
0406051392963709920028083029352    00000027497FDMS     510603152510603152         SHINE FOOD & WINE  43669101604E9E     
0406051354512209920028083029352    00000007981FDMS     510604358510604358         NORTHMAN COFFEE    43669101604E9F     
0406051348346109920028083029352    00000032911FDMS     510604366510604366         GRILLOS            43669101604EA0     
0406051370272009920028083029352    00000029130FDMS     510604671510604671         TASTE OF GLEBE     43669101604EA1     
0406051367420909920028083029352    00000010500FDMS     510605223510605223         CALNE SAVE ON TYRE 43669101604EA2     
0406051430829009920028083029352    00000041000FDMS     510608136510608136         FLAVOUR BOSS EXPRE 43669101604EA3     
0406051358241809920028083029352    00000001950FDMS     510610066510610066         BLUE SPICE         43669101604EA4     
0406051380629209920028083029352    00000302220FDMS     510610264510610264         HTTPS //WWW.THEAIR 43669101604EA5     
0406051359275809920028083029352    00000000499FDMS     510610496510610496         KING GRILL PIZZA   43669101604EA6     
0406051373179309920028083029352    00000015389FDMS     510611726510611726         WWW.NUMBEREIGHTCLO 43669101604EA7     
0406051350403209920028083029352    00000022150FDMS     510612542510612542         VILLAGGIO HOTEL &  43669101604EA8     
0406051388004509920028083029352    00000006070FDMS     510612591510612591         FRANGO PERI PERI   43669101604EA9     
0406051381496009920028083029352    00000003609FDMS     510612872510612872         ASHFORD PERI PERI  43669101604EAA     
0406051359642709920028083029352    00000015850FDMS     510613334510613334         MERCY BURGER       43669101604EAB     
0406051353720109920028083029352    00000009300FDMS     510614241510614241         CHICOS             43669101604EAC     
0406051452759409920028083029352    00000002634FDMS     510614373510614373         PIZZA KING         43669101604EAD     
0406051374604109920028083029352    00000014015FDMS     510619687510619687         TEMPLE INDIAN CUIS 43669101604EAE     
0406051409858309920028083029352    00000048950FDMS     510620297510620297         COOMBEND FISH BAR  43669101604EAF     
0406051373460109920028083029352    00000019000FDMS     510621956510621956         THE FARMERS ARMS   43669101604EB0     
0406051351676909920028083029352    00000001635FDMS     510622822510622822         O GRILL            43669101604EB1     
0406051380218109920028083029352    00000003200FDMS     510622863510622863         THE LOCAL CHIPPY   43669101604F23     
0406051370896309920028083029352    00000008140FDMS     510626385510626385         TUK TUK INDIAN TAK 43669101604F24     
0406051382690209920028083029352    00000011930FDMS     510628407510628407         WALTON FRIED CHICK 43669101604F25     
0406051396319909920028083029352    00000179977FDMS     510628522510628522         SEA FRONT          43669101604F26     
0406051396319909920028083029352    00000007785FDMS     510628530510628530         SEA FRONT          43669101604F27     
0406051395159509920028083029352    00000038863FDMS     510630361510630361         CURRY MERCHANTS    43669101604F28     
0406051425747609920028083029352    00000004000FDMS     510630429510630429         FONE REVIVE        43669101604F29     
0406051361730109920028083029352    00000062475FDMS     510631112510631112         NOLE SOURDOUGH PIZ 43669101604F2A     
0406051390879409920028083029352    00000003760FDMS     510631286510631286         DOLANS TAKE AWAY   43669101604F2B     
0406051396888009920028083029352    00000019525FDMS     510632300510632300         ROSE INDIAN TAKEAW 43669101604F2C     
0406051382625809920028083029352    00000125320FDMS     510633829510633829         FOWEY RIVER GALLER 43669101604F2D     
0406051353377909920028083029352    00000025990FDMS     510634744510634744         SUNNY BEACH RESTAU 43669101604F2E     
0406051389170309920028083029352    00000107400FDMS     510639594510639594         UNBLOCK DRAINS TOD 43669101604F2F     
0406051397690609920028083029352    00000186910FDMS     510640808510640808         YIMCHAI            43669101604F30     
0406051370256509920028083029352    00000012720FDMS     510641236510641236         MY MASALA          43669101604F31     
0406051395711809920028083029352    00000001760FDMS     510642747510642747         TREETON PIZZA EXPR 43669101604F32     
0406051398852909920028083029352    00000003018FDMS     510643539510643539         LOVE SHAWARMA      43669101604F33     
0406051407741909920028083029352    00000142703FDMS     510644594510644594         FARRINGTONS FAMILY 43669101604EB4     
0406051394356109920028083029352    00000009000FDMS     510644719510644719         FLAMES EXPRESS     43669101604EB5     
0406051397199909920028083029352    00000121870FDMS     510646763510646763         BATH ROAD LOCAL    43669101604EB6     
0406051373860609920028083029352    00000030550FDMS     510647654510647654         WELL HALL TANDOORI 43669101604EB7     
0406051363185709920028083029352    00000193872FDMS     510648041510648041         M11 LOCAL          43669101604EB8     
0406051411328009920028083029352    00000009080FDMS     510648728510648728         RAINWORTH FISH BAR 43669101604EB9     
0406051408854409920028083029352    00000066175FDMS     510650229510650229         BARISTA            43669101604EBA     
0406051430860409920028083029352    00000007290FDMS     510650575510650575         WOW 2              43669101604EBB     
0406051415690109920028083029352    00000126714FDMS     510652639510652639         BRIDGE BAKERY      43669101604EBC     
0406051412526909920028083029352    00000007140FDMS     510652878510652878         KULLAR FISH BAR    43669101604EBD     
0406051401043209920028083029352    00000087983FDMS     510653918510653918         MAGAZIN ROMANESC T 43669101604EBE     
0406051377527109920028083029352    00000028809FDMS     510654064510654064         IRO SUSHI          43669101604EBF     
0406051348556709920028083029352    00000002976FDMS     510655038510655038         TUNNOCKS           43669101604EC0     
0406051411267809920028083029352    00000005250FDMS     510655343510655343         BLUKKU             43669101604EC1     
0406051410620909920028083029352    00000005450FDMS     510655798510655798         BEST GRILL SHAWARM 43669101604EC2     
0406051414801409920028083029352    00000082561FDMS     510656705510656705         BELL STREET COFFEE 43669101604EC3     
0406051406773109920028083029352    00000033816FDMS     510656853510656853         TAJ MAHAL NIGHT    43669101604EC4     
0406051416793209920028083029352    00000019768FDMS     510657117510657117         TAJ BAZAAR         43669101604EC5     
0406051415999509920028083029352    00000000990FDMS     510657190510657190         SHIMLA TANDOORI    43669101604EC6     
0406051393509509920028083029352    00000005243FDMS     510662208510662208         PIZZA BOX          43669101604EC7     
0406051415832109920028083029352    00000025468FDMS     510662463510662463         FLAVAS PIZZA & PER 43669101604EC8     
0406051406416309920028083029352    00000013259FDMS     510663057510663057         WEST KEBAB & BURGE 43669101604EC9     
0406051423979209920028083029352    00000042620FDMS     510664238510664238         THE MIX            43669101604ECA     
0406051421598409920028083029352    00000011950FDMS     510665508510665508         QUEENS FISH AND TI 43669101604ECB     
0406051418506409920028083029352    00000010570FDMS     510666613510666613         ATILLA KEBAB HOUSE 43669101604ECC     
0406051421199309920028083029352    00000047670FDMS     510668817510668817         HYDERABADI ZAIQA   43669101604ECD     
0406051435461609920028083029352    00000004010FDMS     510669856510669856         HEROLICIOUS        43669101604ECE     
0406051392213909920028083029352    00000012177FDMS     510671456510671456         KATHMANDU FUSION   43669101604ECF     
0406051381394909920028083029352    00000002276FDMS     510671795510671795         WING HUT           43669101604ED0     
0406051394747009920028083029352    00000033462FDMS     510672876510672876         SHALIMAR TANDOORI  43669101604ED1     
0406051418368909920028083029352    00000004031FDMS     510674518510674518         2020 PIZZA GRILL   43669101604ED2     
0406051403956609920028083029352    00000008185FDMS     510674799510674799         DOLCE & GELATO     43669101604ED3     
0406051428888009920028083029352    00000002000FDMS     510674815510674815         PRO SUN LAUNCESTON 43669101604ED4     
0406051411156409920028083029352    00000007650FDMS     510675028510675028         3BZ                43669101604ED5     
0406051390818509920028083029352    00000001520FDMS     510675747510675747         HFC PIZZA COTTAGE  43669101604ED6     
0406051361377109920028083029352    00000008100FDMS     510678311510678311         TURKISH DELIGHT    43669101604ED7     
0406051369646809920028083029352    00000002536FDMS     510679350510679350         YAMASUSHI          43669101604ED8     
0406051426661609920028083029352    00000119200FDMS     510679640510679640         THE BEST BROASTED  43669101604ED9     
0406051426623109920028083029352    00000006247FDMS     510680739510680739         YO DESI            43669101604EDA     
0406051434775109920028083029352    00000011394FDMS     510681893510681893         CAKES BOUTIQUE     43669101604EDB     
0406051412235009920028083029352    00000015800FDMS     510681927510681927         PRO SHOP           43669101604EDC     
0406051426892909920028083029352    00000013220FDMS     510682339510682339         EUXTON DELI        43669101604EDD     
0406051415266809920028083029352    00000012299FDMS     510683683510683683         DFC CHICKEN & PIZZ 43669101604EDE     
0406051426737609920028083029352    00000012675FDMS     510685837510685837         PIZZALICIOUS       43669101604EDF     
0406051421275209920028083029352    00000012695FDMS     510686249510686249         MEXIFUN            43669101604EE0     
0406051351745309920028083029352    00000090732FDMS     510686272510686272         ATLANTIS FISH & CH 43669101604EE1     
0406051441264809920028083029352    00000012358FDMS     510687650510687650         SPICE THAI         43669101604EE2     
0406051384642009920028083029352    00000037495FDMS     510690118510690118         DC MODELS UK LTD   43669101604F63     
0406051394689209920028083029352    00000093631FDMS     510690589510690589         HOOK ROAD FOOD & W 43669101604F64     
0406051398956609920028083029352    00000012745FDMS     510690746510690746         ANISE INDIAN RESTA 43669101604F65     
0406051446731209920028083029352    00000013990FDMS     510695737510695737         ORCHID BUILDING SU 43669101604F66     
0406051444356109920028083029352    00000002950FDMS     510696503510696503         THE CHARCOAL HOB   43669101604F67     
0406051440308909920028083029352    00000008620FDMS     510696677510696677         PAPA KALS          43669101604F68     
0406051443790109920028083029352    00000122469FDMS     510697469510697469         BEST ONE           43669101604F69     
0406051363554509920028083029352    00000003245FDMS     510697600510697600         NAPOLI PIZZA       43669101604F6A     
0406051439924209920028083029352    00000018290FDMS     510698020510698020         HTTPS //WWW.CODFAT 43669101604F6B     
0406051381768909920028083029352    00000003549FDMS     510698046510698046         FINEST PIZZA       43669101604F6C     
0406051448139609920028083029352    00000001690FDMS     510698814510698814         DIAL A SHAKE       43669101604F6D     
0406051374237909920028083029352    00000006250FDMS     510699788510699788         PIZZAHOLICS        43669101604F6E     
0406051414409209920028083029352    00000003060FDMS     510700966510700966         AJ INDIAN CUISINE  43669101604F6F     
0406051410554909920028083029352    00000001800FDMS     510701964510701964         FRESH FISH         43669101604F70     
0406051402911109920028083029352    00000081091FDMS     510702749510702749         PENDAS WAY OFF LIC 43669101604F71     
0406051447094109920028083029352    00000014000FDMS     510704067510704067         TWENTY ONE         43669101604F72     
0406051365548409920028083029352    00000048654FDMS     510704240510704240         JOLLOF FOOD STORE  43669101604F73     
0406051441083109920028083029352    00000042048FDMS     510704497510704497         LS AUTO MECHANICS  43669101604EF4     
0406051410554909920028083029352    00000205110FDMS     510707433510707433         FRESH FISH         43669101604EF5     
0406051409461709920028083029352    00000023242FDMS     510709702510709702         EATIGO FAST FOOD   43669101604EF6     
0406051451982509920028083029352    00000013710FDMS     510712177510712177         SOPHIES EXPRESS    43669101604EF7     
0406051449992209920028083029352    00000001400FDMS     510712250510712250         COCO IVY           43669101604EF8     
0406051392815409920028083029352    00000002026FDMS     510712896510712896         ROCKYS EASY DINER  43669101604EF9     
0406051417450109920028083029352    00000039610FDMS     510714298510714298         HANDI RESTAURANT   43669101604EFA     
0406051394082909920028083029352    00000007480FDMS     510716012510716012         SINGH IS KING      43669101604EFB     
0406051453634209920028083029352    00000028070FDMS     510716855510716855         LITTLE ITALY       43669101604EFC     
0406051441827309920028083029352    00000009558FDMS     510718448510718448         ADORA PIZZA        43669101604EFD     
0406051455000409920028083029352    00000095360FDMS     510720501510720501         ALDBOURNE POST OFF 43669101604EFE     
0406051431400309920028083029352    00000052398FDMS     510720790510720790         PERI PERI ORIGINAL 43669101604EFF     
0406051454070109920028083029352    00000087145FDMS     510722267510722267         V S P WINES        43669101604F00     
0406051380729109920028083029352    00000012593FDMS     510722895510722895         KJ S DINER         43669101604F01     
0406051458644109920028083029352    00000030000FDMS     510725922510725922         AUTOFIX WORKSHOP   43669101604F02     
0406051348454709920028083029352    00000029940FDMS     510726565510726565         TIKKAS             43669101604F03     
0406051455983209920028083029352    00000003972FDMS     510726680510726680         TOWNMARKET         43669101604F04     
0406051454951109920028083029352    00000085803FDMS     510727852510727852         CHINA CENTRE       43669101604F05     
0406051367456009920028083029352    00000013280FDMS     510728561510728561         LOLFA              43669101604F06     
0406051454552909920028083029352    00000002748FDMS     510728603510728603         THE TYNE BITE      43669101604F07     
0406051452860809920028083029352    00000002098FDMS     510729593510729593         PIZZERIA MILANO    43669101604F08     
0406051428924209920028083029352    00000257491FDMS     510729932510729932         MEDITERRANEVM.TOUC 43669101604F09     
0406051439287909920028083029352    00000077620FDMS     510730625510730625         GREEKSTREETFOOD.TO 43669101604F0A     
0406051457623309920028083029352    00000002298FDMS     510731136510731136         MARCHEE JOTALIMA   43669101604F0B     
0406051439586409920028083029352    00000014777FDMS     510731953510731953         STIRLING WHOLESALE 43669101604F0C     
0406051449843409920028083029352    00000007200FDMS     510732159510732159         PAPA GINOS         43669101604F0D     
0406051381052209920028083029352    00000046682FDMS     510732803510732803         MANJAROS           43669101604F0E     
0406051440945409920028083029352    00000018340FDMS     510733074510733074         WWW.NEWMAYFLOWERBU 43669101604F0F     
0406051389605209920028083029352    00000053910FDMS     510733082510733082         CHA CHA CHAI       43669101604F10     
0406051462665409920028083029352    00000005550FDMS     510735608510735608         THE PIZZA SHOP     43669101604F11     
0406051361730109920028083029352    00000075750FDMS     510735855510735855         NOLE PIZZA         43669101604F12     
0406051448321909920028083029352    00000014735FDMS     510737273510737273         ASIF FOOD LIMITED  43669101604F13     
0406051435805509920028083029352    00000044814FDMS     510738438510738438         BELLA BELLA ITALIA 43669101604F14     
0406051450411009920028083029352    00000010395FDMS     510739451510739451         A TOUCH OF ARTISAN 43669101604F15     
0406051439249409920028083029352    00000010775FDMS     510740426510740426         SMOKY BOYS         43669101604F16     
0406051438112209920028083029352    00000014380FDMS     510741317510741317         CINNAMON INDIAN TA 43669101604F17     
0406051461907909920028083029352    00000005300FDMS     510741960510741960         BERLIN DONER       43669101604F18     
0406051461133409920028083029352    00000029147FDMS     510743685510743685         CENTRAL SUPERMEARK 43669101604F19     
0406051451332609920028083029352    00000011490FDMS     510744824510744824         500 DEGREES        43669101604F1A     
0406051465855209920028083029352    00000004095FDMS     510748809510748809         LADE KITCHEN WOODL 43669101604F1B     
0406051438563709920028083029352    00000010669FDMS     510749468510749468         LUKSHAZ PERI PERI  43669101604F1C     
0406051467333809920028083029352    00000005450FDMS     510749484510749484         V&P FOODS          43669101604F1D     
0406051465953909920028083029352    00000010930FDMS     510751043510751043         DOGAHOLIC          43669101604F1E     
0406051467200509920028083029352    00000005740FDMS     510751639510751639         NEW MALDEN FISH BA 43669101604F1F     
0406051437675509920028083029352    00000014030FDMS     510753155510753155         MIDDX PLUMB & ELEC 43669101604F20     
0406051425923409920028083029352    00000001300FDMS     510753882510753882         CHEZ VOUS EXPRESS  43669101604F21     
0406051377850709920028083029352    00000001700FDMS     510754344510754344         CANDY CAKERY       43669101604F22     
0406051440834709920028083029352    00000017896FDMS     510756232510756232         UDAYS              43669101604FA3     
0406051462823809920028083029352    00000017562FDMS     510756703510756703         GURKHA CURRY NIGHT 43669101604FA4     
0406051403094209920028083029352    00000081846FDMS     510756877510756877         ROSES GENERAL STOR 43669101604FA5     
0406051466798909920028083029352    00000035962FDMS     510757057510757057         LOVE INDIAN        43669101604FA6     
0406051472166509920028083029352    00000000950FDMS     510760341510760341         CAFE ITALIA        43669101604FA7     
0406051463314609920028083029352    00000000450FDMS     510761240510761240         DEXTERS            43669101604FA8     
0406051381500409920028083029352    00000003850FDMS     510761992510761992         KINGS CORNER       43669101604FA9     
0406051460098509920028083029352    00000010990FDMS     510762040510762040         BRAVOS DIDSBURY LT 43669101604FAA     
0406051456502809920028083029352    00000022723FDMS     510762636510762636         PAPA JOHNS WILLENH 43669101604FAB     
0406051457576309920028083029352    00000011493FDMS     510762644510762644         PAPA JOHNS DUDLEY  43669101604FAC     
0406051423815309920028083029352    00000055056FDMS     510762883510762883         LAMBO NEWS FOOD AN 43669101604FAD     
0406051468797009920028083029352    00000058595FDMS     510763287510763287         500 DEGREES        43669101604FAE     
0406051458151409920028083029352    00000037802FDMS     510764095510764095         TIAGOS             43669101604FAF     
0406051463235409920028083029352    00000014580FDMS     510764681510764681         THE FULL ENGLISH C 43669101604FB0     
0406051472048309920028083029352    00000016226FDMS     510765068510765068         JUST FOODZ         43669101604FB1     
0406051443909809920028083029352    00000002730FDMS     510765654510765654         MONDOS PIZZERIA    43669101604FB2     
0406051459207509920028083029352    00000078990FDMS     510766629510766629         BEERBOHM           43669101604FB3     
0406051474960909920028083029352    00000057139FDMS     510767205510767205         MARLBOROUGH BAKERY 43669101604F34     
0406051456193509920028083029352    00000017089FDMS     510767403510767403         BULGARIAN FOOD STO 43669101604F35     
0406051456963309920028083029352    00000006190FDMS     510768369510768369         URBAN TARKA        43669101604F36     
0406051474660509920028083029352    00000101810FDMS     510770811510770811         THE BEECHES GOLF   43669101604F37     
0406051439287909920028083029352    00000006000FDMS     510772825510772825         GREEK STREET FOOD  43669101604F38     
0406051472609409920028083029352    00000089160FDMS     510773641510773641         PALANQUIN INDIAN L 43669101604F39     
0406051480093509920028083029352    00000033940FDMS     510774771510774771         ROSEMARY 2 GREEK R 43669101604F3A     
0406051413124409920028083029352    00000030758FDMS     510775166510775166         PEPES CHEETHAM HIL 43669101604F3B     
0406051469208109920028083029352    00000078513FDMS     510775182510775182         WANDERLUST EATERY  43669101604F3C     
0406051479107809920028083029352    00000011365FDMS     510776669510776669         BUN APPETITE       43669101604F3D     
0406051479431909920028083029352    00000014691FDMS     510776677510776677         CHILLIES           43669101604F3E     
0406051361697709920028083029352    00000000200FDMS     510777121510777121         EXPRESS BBQ        43669101604F3F     
0406051440938409920028083029352    00000008500FDMS     510777675510777675         A2B MOT  SMALLFIEL 43669101604F40     
0406051376944209920028083029352    00000016750FDMS     510777766510777766         STAR GRILLZ        43669101604F41     
0406051453791409920028083029352    00000028965FDMS     510777931510777931         SEASONS MINI MARKE 43669101604F42     
0406051350316009920028083029352    00000001295FDMS     510778335510778335         MADRAS             43669101604F43     
0406051462868509920028083029352    00000041746FDMS     510779622510779622         HTTP //SPICECENTRA 43669101604F44     
0406051472735809920028083029352    00000030820FDMS     510779663510779663         BRAVOS PIZZERIA    43669101604F45     
0406051477245109920028083029352    00000001771FDMS     510781438510781438         SOLAF STORE        43669101604F46     
0406051351745309920028083029352    00000021280FDMS     510781990510781990         PORTSIDELEEDS.CO.U 43669101604F47     
0406051476174009920028083029352    00000016050FDMS     510782048510782048         THE CHIP INN       43669101604F48     
0406051474819509920028083029352    00000006100FDMS     510782998510782998         SPICE BOX          43669101604F49     
0406051463153809920028083029352    00000002327FDMS     510785017510785017         CHIC O LAND        43669101604F4A     
0406051357402509920028083029352    00000137045FDMS     510786700510786700         SPICE CABINET      43669101604F4B     
0406051476799509920028083029352    00000014612FDMS     510786999510786999         VILLAGE BARGAIN    43669101604F4C     
0406051436338609920028083029352    00000000820FDMS     510787062510787062         MOZAHUT            43669101604F4D     
0406051469579709920028083029352    00000030050FDMS     510788326510788326         RUCHIE TAKEAWAY LT 43669101604F4E     
0406051484267909920028083029352    00000002547FDMS     510789209510789209         PENNYS             43669101604F4F     
0406051359040009920028083029352    00000020323FDMS     510789605510789605         SUBWAY             43669101604F50     
0406051484632909920028083029352    00000013450FDMS     510790298510790298         BUT FIRST COFFEE   43669101604F51     
0406051385755909920028083029352    00000140273FDMS     510792088510792088         RANYA FOOD CENTRE  43669101604F52     
0406051409378109920028083029352    00000006200FDMS     510550890510550890         CHOC STOP          43669101604E8B     
0406051412350809920028083029352    00000019105FDMS     510564164510564164         WEST END COTTAGE   43669101604E8C     
0406051486898309920028083029352    00000100470FDMS     510792104510792104         ONION BHAJI INDIAN 43669101604F53     
0406051476181709920028083029352    00000025580FDMS     510792203510792203         THE GOODE KITCHEN  43669101604F54     
0406051483147009920028083029352    00000009070FDMS     510794498510794498         ZUMU SUSHI         43669101604F55     
0406051418702209920028083029352    00000043290FDMS     510794878510794878         KAMBLE HOUSE       43669101604F56     
0406051438829609920028083029352    00000008740FDMS     510794951510794951         HUNGRY SHARK       43669101604F57     
0406051448896209920028083029352    00000071750FDMS     510795065510795065         THE HANMER ARMS    43669101604F58     
0406051433539509920028083029352    00000052000FDMS     510795917510795917         MILLARS RESTAURANT 43669101604F59     
0406051489213909920028083029352    00000111705FDMS     510796030510796030         FOUR HORSE SHOES   43669101604F5A     
0406051397591209920028083029352    00000020518FDMS     510796345510796345         PORTASHOP          43669101604F5B     
0406051468633609920028083029352    00000022136FDMS     510796444510796444         VILLAGE EAT INN    43669101604F5C     
0406051488455209920028083029352    00000104814FDMS     510796469510796469         BEARSTED NEWS      43669101604F5D     
0406051476204109920028083029352    00000034832FDMS     510796873510796873         SPICE HUT ORIGINAL 43669101604F5E     
0406051389380209920028083029352    00000001725FDMS     510796899510796899         MIRELLA SANDWICH B 43669101604F5F     
0406051359550309920028083029352    00000002850FDMS     510798770510798770         CHICKEN SHAAK      43669101604F74     
0406051478234409920028083029352    00000009060FDMS     510797749510797749         THATCHED TAVERN    43669101604F60     
0406051478037209920028083029352    00000015090FDMS     510797798510797798         FIREAWAY           43669101604F61     
0406051491141909920028083029352    00000019511FDMS     510798002510798002         HILLTOP ANIMAL AND 43669101604F62     
0406051485181709920028083029352    00000007589FDMS     510798846510798846         FOOD STOP          43669101604F75     
0406051468981909920028083029352    00000010310FDMS     510799208510799208         MOGHUL             43669101604F76     
0406051471233209920028083029352    00000009555FDMS     510799216510799216         THE VILLAGE EATERY 43669101604F77     
0406051483147009920028083029352    00000171360FDMS     510800329510800329         HTTPS //ZUMUSUSHI. 43669101604F78     
0406051471657709920028083029352    00000007590FDMS     510803059510803059         MUNCHIES           43669101604F7C     
0406051491626409920028083029352    00000255584FDMS     510801715510801715         WORKSOP MINI MARKE 43669101604F79     
0406051477258309920028083029352    00000058612FDMS     510801913510801913         NE-MADINA FOOD STO 43669101604F7A     
0406051483048509920028083029352    00000036825FDMS     510803018510803018         MY KITCHEN         43669101604F7B     
0406051491999709920028083029352    00000001948FDMS     510803067510803067         PIZZA WRAP AND ROL 43669101604F7D     
0406051487407409920028083029352    00000117975FDMS     510805435510805435         CHATKA FRANKA      43669101604F7E     
0406051445167709920028083029352    00000006800FDMS     510808082510808082         VAPE CONNECT       43669101604F7F     
0406051457882309920028083029352    00000013430FDMS     510809114510809114         RAMBOS             43669101604F80     
0406051432435709920028083029352    00000015000FDMS     510809171510809171         ONBOARDS           43669101604F81     
0406051466059909920028083029352    00000000400FDMS     510810559510810559         PARMOZ             43669101604F82     
0406051496932709920028083029352    00000010165FDMS     510811565510811565         HIGH TIDE FISH AND 43669101604F83     
0406051487034809920028083029352    00000044368FDMS     510811581510811581         HOLBORN HARDWARE   43669101604F84     
0406051458377109920028083029352    00000021288FDMS     510812282510812282         HENNIE PENNYS CHIC 43669101604F85     
0406051453061309920028083029352    00000001795FDMS     510816564510816564         CHAMPIONS          43669101604F89     
0406051498152309920028083029352    00000007800FDMS     510813884510813884         THE E-CIG STORE    43669101604F86     
0406051461441509920028083029352    00000000575FDMS     510814080510814080         JUST BURGER        43669101604F87     
0406051465301609920028083029352    00000002360FDMS     510814676510814676         CAF 3              43669101604F88     
0406051484483209920028083029352    00000011438FDMS     510817224510817224         RICKSHA            43669101604F8A     
0406051496855609920028083029352    00000014470FDMS     510817554510817554         WWW.CHARCOALGRILLT 43669101604F8B     
0406051480510009920028083029352    00000020141FDMS     510818719510818719         GRILLOS CROYDON    43669101604F8C     
0406051501834909920028083029352    00000035100FDMS     510819055510819055         THE E-CIG STORE CO 43669101604F8D     
0406051490425309920028083029352    00000002995FDMS     510819253510819253         INDYS PIZZA        43669101604F8E     
0406051498134709920028083029352    00000039434FDMS     510820715510820715         PAXCROFT STORES    43669101604F8F     
0406051502523309920028083029352    00000017140FDMS     510821499510821499         GINOS              43669101604F90     
0406051429037009920028083029352    00000015998FDMS     510822190510822190         KASPAS             43669101604F91     
0406051495721509920028083029352    00000003900FDMS     510823529510823529         MR KEBAB IXWORTH   43669101604F92     
0406051503220209920028083029352    00000009161FDMS     510823941510823941         JSG WINE MERCHANTS 43669101604F93     
0406051496659409920028083029352    00000044980FDMS     510823966510823966         CHAAYE PAANI HUDDE 43669101604F94     
0406051433191109920028083029352    00000002550FDMS     510824022510824022         BAKERS KITCHEN & C 43669101604F95     
0406051482192909920028083029352    00000002800FDMS     510825243510825243         SHOLVER TANDOORI   43669101604F96     
0406051475858409920028083029352    00000002880FDMS     510825250510825250         TODAYS SHARWARMA   43669101604F97     
0406051377588909920028083029352    00000000975FDMS     510825342510825342         SHREWSBURY BBQ & G 43669101604F98     
0406051490265709920028083029352    00000014900FDMS     510825672510825672         D&D DESSERTS LTD   43669101604F99     
0406051504442209920028083029352    00000009800FDMS     510826829510826829         THE E-CIG STORE MA 43669101604F9A     
0406051503896009920028083029352    00000002350FDMS     510826902510826902         BILTON TAKEAWAY    43669101604F9B     
0406051498051909920028083029352    00000007790FDMS     510827942510827942         WWW.EXPRESSKEBABSP 43669101604F9C     
0406051501441409920028083029352    00000005664FDMS     510828833510828833         THE SOUKAS SUPERMA 43669101604F9D     
0406051488505709920028083029352    00000011495FDMS     510829625510829625         AL FLAH GROCERY    43669101604F9E     
0406051496594009920028083029352    00000000001FDMS     510836158510836158         OLD NO7 BAR LOUNGE 43669101604F9F     
0406051388822009920028083029352    00000001700FDMS     510836745510836745         TWO FAT INDIANS    43669101604FA0     
0406051506926409920028083029352    00000001100FDMS     510837115510837115         ZAHRAS GRILL       43669101604FA1     
0406051507531809920028083029352    00000030473FDMS     510839558510839558         PIZZA GOGO         43669101604FA2     
0406051424849509920028083029352    00000146370FDMS     507682144507682144         WHITEROSE CATERING 4366910163D8B5     
0406051494636809920028083029352    00000056667FDMS     508049772508049772         MAILBOXES ETC      4366910163D8B6     
0413072990091709920028083029352    00000063523FDMS     508175148508175148         MUTHOOT FINANCE UK 4366910163D9AF     
0413072990091709920028083029352    00000418200FDMS     508175155508175155         MUTHOOT FINANCE UK 4366910163D9B0     
